:100000000C9469110C9486110C9486110C94861131
:100010000C9486110C9486110C9486110C94861104
:100020000C9486110C94D11F0C9486110C9486119B
:100030000C9486110C9464490C9486110C948611CE
:100040000C9486110C9486110C9452490C948611D0
:100050000C9486110C9486110C9486110C948611C4
:100060000C9486110C9486110C9486110C948611B4
:10007000050A0605060A050A0609060A050A06090A
:10008000060A090A06050A06050A0605060A052AD9
:1000900026052A26092A26090A0600000000000073
:1000A000000000110A060000E0100000101100001E
:1000B00010100000101000001010000010110000BF
:1000C000E008780000048800060288000601780035
:1000D0008600880046008800260078001600000090
:1000E0000E00FCFF070000000E00000016000000DC
:1000F000260200004603000086030000C60300003D
:10010000E603000000040000F009000010100000E9
:1001100010100000F010000010100000101000007F
:10012000F011000000000000F810000008100000AE
:1001300008100000781000000810000008080000F7
:10014000F80478000002880013018800B3007800EA
:1001500073008800F3008800F30178000B000000B2
:100160000700FCFF03000000070000000B00000078
:100170001300000023000000430000008300000083
:100180000301000000020000700400008808000065
:10019000081000000810000008100000881000007F
:1001A0007010000000000000E010000020110000AE
:1001B0002012000020120000201200002011003642
:1001C000E0100036001000F6FF1F00360002003677
:1001D000000200060002000604020036C61F0036B8
:1001E000070200F61F073836970F4436D61F04065D
:1001F000140264061002443610024436100238F627
:10020000FF1F00360010FE37C01100002012000052
:1002100020100000C0110000001200002012000099
:10022000C011000000000000C011000020120000FA
:1002300020100000C0110000001200002012FE3744
:10024000C0110036001038F6FF1F44361002043685
:10025000100264061002440611024436D31F3836D9
:10026000170200F61F070036870F0036C31F00066F
:10027000010200060002003600020036000200F60D
:10028000FF1F003600100036E010000020110000B3
:100290002012000020120000201200002011000097
:1002A000E010000000000000E0100000201100003D
:1002B0002012000020120000201200002011003641
:1002C000E0100036001000F6FF1F00360002003676
:1002D000000200360002003604020036C61F003657
:1002E000070200F61F073836970F4436D61F04362C
:1002F000140264361002443610024436100238F6F6
:10030000FF1F00360010FE37C01100002012000051
:1003100020100000C0110000001200002012000098
:10032000C011000000000000E010000020110000DB
:1003300020120000201200002012000020110036C0
:10034000E0100036001000F6FF1F003600020036F5
:10035000000200360002003604020036C61F0036D6
:10036000070200F61F073836970F4436D61F0436AB
:10037000140264361002443610024436100238F675
:10038000FF1F00360010FE37C011000020120000D1
:1003900020100000C0110000001200002012000018
:1003A000C011000000003800C011440020120400F9
:1003B00020106400C0114400001244042012388C44
:1003C000C111009C0110FEFFFF1F009C0100008C6A
:1003D0000100008401000080010000800100008015
:1003E0000100008001000080010000800100008009
:1003F00001000080010000800100008001000080F9
:10040000FF1F008001100080E1100000201100009B
:100410002012000020120000201200002011000015
:10042000E010000000000000E010000020110000BB
:100430002012000020120000201200002011008075
:10044000E110008001100080FF1F0080010000808B
:100450000100008001000080010000800100388060
:100460000100448001000480010064800100448098
:1004700001004490010038980100009C0100FEFF3B
:10048000FF1F009C01100098C111001020120000F5
:1004900020100000C0110000001200002012000017
:1004A000C0110000000000000E100000111000003C
:1004B000011000000110000001110000110B0000EC
:1004C0000E070000000F0080011F00808D000080DB
:1004D0007D0000800D000080010000800100388058
:1004E0000D0044803D0004804D0064808100448004
:1004F000010044800D0038807D0400808D06FEFFE1
:100500000107000080070000DF070000010800006D
:10051000011000000F100000011000000110000089
:100520001F100000000038001F10440001100400DC
:10053000011064000F10440001114400010B380049
:100540001F070000000FFEFF011F00808D000080CC
:100550007D0000800D00008001000080010000800F
:100560000D0000803D0000804D0000808100008073
:10057000010000800D0000807D0400808D06008059
:100580000107000080070000CE07000011080000EE
:100590000110000001100000011000001110000007
:1005A0000E10000000000000880300004804000056
:1005B00048040000C8070000480400004804000088
:1005C0004804000008000000080000FCFF1F00F8BD
:1005D000FF0F00F0FF0700E0FF0300C0FF010080F5
:1005E000FF0000007F0038003E0044001C000400B3
:1005F000080064FCFF1F44FCFF1F44000C0038008F
:100600000A0000000900FEFF880300004804000003
:1006100048000000480000004800000048040000B6
:10062000880300000000001C130000A21400002238
:100630001400003E12000022110000A2100000A2CF
:100640001700000010000000100000FFFF3F00FC3A
:100650001F0200FC1F0700F80F0700F88F0F00F0C3
:10066000870F00F0C71F38E0C31F44E0E33F04C01A
:10067000E13F64C0F17F4480F07F44FCFFFF3840DD
:10068000100000201000FE1F9023000050340000D6
:1006900050240000D0270000502400005024000007
:1006A00050740000000000008803000048040000AF
:1006B00048040000C8070000480400004804FEFF8A
:1006C00048040000090038000A0044000C0004FC43
:1006D000FF1F64F8FF0F44F0FF0744E0FF0338C03A
:1006E000FF010080FF0000007F0000003E000000CE
:1006F0001C000000080000FCFF1F00FCFF1F0000A2
:100700000800000008000000880300004804000002
:1007100048000000480000004800000048040000B5
:1007200088030000000000001E130000A214000057
:10073000221400001E12000022110000A2101E0050
:100740009E1720C0001040C0001080C8FF1F3ECD83
:10075000000002CE000002CF00009ECF000002D0B9
:10076000000002E000003EC0000000C0000000C029
:10077000000000C0000000C0000000C0FF1F00C05B
:10078000001000C0001000001E110000A2110000A7
:10079000221100001E110000221100002211000091
:1007A0009E13000000000000000000F0010000FCAB
:1007B000070000FE0F00000F1E0000E71C00801362
:1007C0003800800BB800800BB8000000B8000000B3
:1007D0009C0000005E0000004F000080270000C069
:1007E000130000E0090000F0040000F0020000F037
:1007F000020000F002000000020000E00300000020
:100800000000000000000060000000F0000000F0A8
:100810000200006002000000010000C000000000B3
:100820000000000000000000480400004802000032
:1008300048010000C8000000480100004802000410
:100840004804000408000004080000FCFF1F00FC2E
:10085000FF1F0000081000001C1000003E100000E8
:100860007F000080FF0000C0FF0100E0FF0300F0F8
:10087000FF0700F8FF0F00FCFF1F0000080000004A
:100880000800000008000000880300004804000081
:1008900048040000C80700004804000048040000A5
:1008A00048040000000000000000000001000000FB
:1008B0000100000001000000010000000100000034
:1008C000010000000100000001000000010000FE26
:1008D0007F0000FE7F000000000080FFFF0180FF1E
:1008E000FF0180FFFF0180FFFF0180FFFF0100008B
:1008F000000000FE7F0000FE7F00000001000000FD
:1009000001000000010000000100000001000000E3
:1009100001000000010000000100000001000000D3
:1009200000000000000000000011000000110000A5
:10093000C0170000001100E03F1100202010003F10
:10094000E01F0021201000E13F101C0100102401D5
:10095000001044F13F1044F13F1044F1FF1F24F117
:100960003F001CF13F0000F13F00FEFF3F0000F0A0
:100970003F0000F03F0000F03F0000F0FF1F00F0DC
:100980003F1000F03F1000000010000000100000B9
:10099000001000000010000000100000C017000050
:1009A000001000000000FF010203040506076F703D
:1009B000717273747576FFFFFFFFFFFFFFFFFFFF8C
:1009C000FFFFFFFFFFFF1011121314151617181960
:1009D0001A1B1C1D1E1F20212223242526272829FF
:1009E0002A2B2C2D2E2F30313233343536373839EF
:1009F0003A3B3C3D3E3F40414243444546474849DF
:100A00004A4B4C4D4E4F50515253545556575859CE
:100A10005A5B5C5D5E5F60616263646566676869BE
:100A20006A6B6C6D6EFFFFFFFFFFFFFFFFFFFFFFB5
:100A3000FFFFFFFFFFFFFFFFFFFFFFFFFFFFFFFFC6
:100A4000FFFFFFFFFFFFFFFFFFFFFFFFFFFFFFFFB6
:100A5000FFFFFFFFFFFF0FFFFFFFFF05FFFFFFFF90
:100A6000FFFFFFFFFFFFFFFFFFFF08FFFFFFFFFF8D
:100A7000FFFFFFFFFFFFFFFFFFFFFFFF09FFFFFF7C
:100A8000FFFF0AFFFF0BFFFFFFFF0CFFFFFFFFFF52
:100A9000FFFFFFFFFFFFFFFFFFFFFFFF0DFFFFFF58
:100AA000FFFF0EFFFFFF000000000000000000003D
:100AB0000000000000000000000000000000000036
:100AC0000000000000000000000000000000000026
:100AD0000000000000000000000000000000000016
:100AE00004700C701C703C707C70FC70FC71FC73AA
:100AF000FC77FFFFFFFFFC77FC73FC71FC707C70E0
:100B00003C701C700C7004700000000000000000BD
:100B1000000000000E200E300E380E3C0E3E0E3F40
:100B20008E3FCE3FEE3FFFFFFFFFEE3FCE3F8E3FBB
:100B30000E3F0E3E0E3C0E380E300E200000000020
:100B400000000000000000003C3C3C3C3C3C3C3CC5
:100B50003C3C3C3C3C3C3C3C3C3C3FFC3FFC3C3C4F
:100B60003C3C3C3C3C3C3C3C3C3C3C3C3C3C3C3CC5
:100B7000000000000000000000000000C007E00FBF
:100B8000301818300C600C6006C006C006C006C0E5
:100B90000C600C6018303018600C628C7EFC7EFC9F
:100BA0000000000000000000000000000000000045
:100BB00000000000000000001C381C381C381C38E5
:100BC0001C381C381C381C381C381C383C3C7C3EFB
:100BD000FC3BDC7B1C001C001C001C001C000000FB
:100BE0000000000000000000FEFFFEFF06000600FF
:100BF00006000600060007000700060006000600C3
:100C000006000600FEFFFEFF0000000000000000DE
:100C1000000000000000000000000000FF7FFF7FD8
:100C20000060006000600060006000E000E00060C4
:100C30000060006000600060FF7FFF7F0000000038
:100C4000000000000000300C300C0000000000002C
:100C5000C001C003E003600760077006300E380E65
:100C6000381C181CFC3FFC3F0E380E700E7007E05D
:100C700000000000000000000000300C300C0000FC
:100C800000000000E007F00F381C1C381C380E7004
:100C90000E700E700E700E700E701C381C38381CE2
:100CA000F00FE007000000000000000000006018E6
:100CB00060180000000000001C701C701C701C708C
:100CC0001C701C701C701C701C701C701C701C70C4
:100CD0003C783838F01FE00F0000000000000000F2
:100CE00000000000F003F8073C0E1C0E1C0E1C0652
:100CF0001C079C039C039C039C071C0F1C1E1C3C94
:100D00001C781C701C709C709C3F1C1F0000000015
:100D1000000000000000000000000000600C600CFB
:100D200000000000E007F80F181E001C001CE01F68
:100D3000F01F381C1C1C1C1C1C1C3C1EF87BF07873
:100D400000000000000000000000000000000000A3
:100D50003006300600000000E003F80F3C1E1C1CAB
:100D60000E380E380E380E380E380E381C1C3C1E4D
:100D7000F80FE00300000000000000000000000089
:100D80000000000030063006000000001C381C384F
:100D90001C381C381C381C381C381C381C381C38B3
:100DA0001C3C3C3EF83BF038000000000000000016
:100DB0000000000000008003C007600C600C600CA5
:100DC000C0078003000000000000000000000000D9
:100DD0000000000000000000000000000000000013
:100DE0000000000000000000000000000000000003
:100DF00000000000000000000000000000000000F3
:100E000000000000000000000000000000000000E2
:100E1000000000000000000000000000000080034F
:100E200080038003800380038003800380038003AA
:100E300080038003800380038003000000008003A0
:100E4000800380030000000000000000000000009C
:100E5000380E380E380E380E380E1004100400000C
:100E60000000000000000000000000000000000082
:100E70000000000000000000000000000000000072
:100E800000000000000080318031C018C018C01878
:100E9000C018FC7FFC7F600C60063006FE3FFE3F02
:100EA00018031803180318038C018C0100000000BC
:100EB00000000000000000030003C01FF03F70238B
:100EC0003803380338037803F003E0038007001F7A
:100ED000001F003B003B003B003B181BF81FE00FCE
:100EE00000030003000000000000000000003CC000
:100EF0006660C330C318C318C30CC30666033C0343
:100F00008001C03CC06660C330C318C318C30CC3A3
:100F10000666033C00000000000000000000000026
:100F20000000E003F007380E380E380E3806700760
:100F3000F001F800FCE0CEE1C7E387630767077EB6
:100F40000F3E1E3CFC7FF0F300000000000000009C
:100F500000000000C001C001C001C001C00180004C
:100F60008000000000000000000000000000000001
:100F70000000000000000000000000000000000071
:100F800000000000000000000018001E000F800399
:100F9000C001E000E000E000700070007000700030
:100FA0007000700070007000E000E000E000C00120
:100FB0008003000F001E0018000000000C003C0021
:100FC0007800E000C0018003800380030007000771
:100FD00000070007000700070007000780038003E1
:100FE0008003C001E00078003C000C00000000001D
:100FF0000000800380038003981B7C3E300C40027D
:10100000E007700E381C2004000000000000000003
:1010100000000000000000000000000000000000D0
:1010200000000000000000000000000000000000C0
:10103000800180018001800180018001FE7FFE7FB0
:10104000800180018001800180018001000000009A
:101050000000000000000000000000000000000090
:101060000000000000000000000000000000000080
:101070000000000000000000C003C003C003C00364
:10108000000380038001C000000000000000000099
:101090000000000000000000000000000000000050
:1010A0000000F81FF81F0000000000000000000012
:1010B0000000000000000000000000000000000030
:1010C0000000000000000000000000000000000020
:1010D0000000000000000000000000000000000010
:1010E000C003C003C003C0030000000000000000F4
:1010F0000000000000600030003000180018000CF4
:10110000000C000600060003000380018001C000FF
:10111000C0006000600030003000180018000C00B3
:101120000C000600000000000000E003F007380E8D
:101130001C1C1C1C0E380E380E380E380E380E389B
:101140000E380E380E381C1C1C1C380EF007E0033D
:10115000000000000000000000000000000000038C
:10116000E003FC038C03800380038003800380037F
:101170008003800380038003800380038003800357
:10118000FC7FFC7F00000000000000000000000069
:101190000000F003FC070C0E001C001C001C001CCF
:1011A000000E000E00078003C001E0007000300058
:1011B00038001C00FC1FFC1F0000000000000000A5
:1011C000000000000000F003F80F081E001C001CC7
:1011D000001C000C0006E003E007000F001E001CCE
:1011E000001C001C001E080FF807F8030000000098
:1011F00000000000000000000000000E000F800F43
:10120000800FC00EE00E600E300E180E180E0C0E81
:10121000060EFE7FFE7F000E000E000E000E000E7A
:101220000000000000000000000000000000F03F8F
:10123000F03FF03F30003000300030003000F0036D
:10124000F00F001E003C003800380038003C101E33
:10125000F00FF0030000000000000000000000009C
:101260000000801FE03FF0207000380038001C00B4
:101270009C0FDC1F7C3C3C781C701C701C70387010
:1012800038387038F01FC007000000000000000070
:10129000000000000000F83FF83FF83F0018001879
:1012A000000C000C00060002000380018001C00059
:1012B000C0006000600070003000300000000000DE
:1012C00000000000000000000000C007F00F781EC2
:1012D000381C381C381C780CF00FE003F00F381F56
:1012E000181E1C3C1C381C381C38381CF00FE0073A
:1012F0000000000000000000000000000000C00727
:10130000F01F381C38381C381C701C701C703C785E
:10131000787CF077E073007000380038001C081EFD
:10132000F80FF003000000000000000000000000C3
:10133000000000000000000000000000C003C00327
:10134000C003C00300000000000000000000000017
:10135000C003C003C003C003000000000000000081
:10136000000000000000000000000000000000007D
:10137000C003C003C003C003000000000000000061
:1013800000000000C003C003C003C00300038003CB
:101390008001C0000000000000000000000000000C
:1013A0000000000000400070003C000FC003F0008F
:1013B0003C003C00F000C003000F003C0070004007
:1013C000000000000000000000000000000000001D
:1013D0000000000000000000000000000000FE7F90
:1013E000FE7F000000000000FE7FFE7F0000000086
:1013F00000000000000000000000000000000000ED
:1014000000000000000000000000000002000E00CC
:101410003C00F000C003000F003C003C000FC00384
:10142000F0003C000E000200000000000000000080
:10143000000000000000F807FC1F0C3C0C380038CE
:101440000038001C001E000F80078003C001C0018F
:10145000C00100000000C001C001C0010000000088
:1014600000000000000000000000C00FE01F703806
:1014700018301C3E0C318E31C630C630C638C638E6
:10148000C63CC6348EF78CF31C003808F00FC0073A
:10149000000000000000000000000000000000004C
:1014A00000000000C001C003E00360076007700691
:1014B000300E380E381C181CFC3FFC3F0E380E70E6
:1014C0000E7007E0000000000000000000000000B7
:1014D0000000000000000000FC07FC0F1C1E1C1C8C
:1014E0001C1C1C0EFC07FC071C1E1C3C1C381C385A
:1014F0001C381C3CFC1FFC07000000000000000022
:10150000000000000000000000000000C01FF03FCD
:1015100078303C001C000E000E000E000E000E0085
:101520000E001C003C007820F03FC01F00000000AF
:1015300000000000000000000000000000000000AB
:10154000FC07FC0F1C3C1C381C781C701C701C70A9
:101550001C701C701C701C381C381C1EFC0FFC03FB
:10156000000000000000000000000000000000007B
:1015700000000000F83FF83F38003800380038001D
:101580003800F81FF81F38003800380038003800DD
:10159000F87FF87F0000000000000000000000005D
:1015A0000000000000000000F87FF87F38003800DD
:1015B000380038003800F83FF83F3800380038006D
:1015C000380038003800380000000000000000003B
:1015D000000000000000000000000000C01FF03FFD
:1015E00078303C001C000E000E000E000E3F0E3F37
:1015F0000E381C383C387838F03FC01F000000001F
:1016000000000000000000000000000000000000DA
:101610001C381C381C381C381C381C381C38FC3F43
:10162000FC3F1C381C381C381C381C381C381C3833
:1016300000000000000000000000000000000000AA
:1016400000000000FC1FFC1FC001C001C001C00160
:10165000C001C001C001C001C001C001C001C00182
:10166000FC1FFC1F00000000000000000000000044
:101670000000000000000000F80FF80F000E000E40
:10168000000E000E000E000E000E000E000E000EEA
:10169000000E0407FC03FC01000000000000000035
:1016A0000000000000000000000000001C781C3C4E
:1016B0001C1E1C0F1C079C03DC01FC00DC01DC036E
:1016C0009C071C0F1C1E1C3C1C781CF80000000012
:1016D000000000000000000000000000000000000A
:1016E000380038003800380038003800380038003A
:1016F000380038003800380038003800F83FF83F2C
:1017000000000000000000000000000000000000D9
:10171000000000000E381E3C1E3C1E3C363636369D
:101720003636663266336633C631C631C631063068
:10173000063006300000000000000000000000003D
:1017400000000000000000001C301C303C307C30E9
:101750007C30FC30EC31CC31CC338C370C3F0C3E40
:101760000C3E0C3C0C380C3800000000000000005F
:10177000000000000000000000000000E007F00F83
:10178000381C1C381C380E700E700E700E700E70E7
:101790000E701C381C38381CF00FE00700000000E9
:1017A0000000000000000000000000000000000039
:1017B000F81FF83F38783870387038703878383C0F
:1017C000F81FF807380038003800380038003800B3
:1017D0000000000000000000000000000000000009
:1017E00000000000E007F00F381C1C381C380E7099
:1017F0000E700E700E700E700E701C381C38381C77
:10180000F00FE007001E007800F00040000000002C
:101810000000000000000000FC07FC0F1C1E1C1C48
:101820001C1C1C1C1C0EFC07FC039C071C071C0F2B
:101830001C1E1C3C1C381C7800000000000000002E
:10184000000000000000000000000000E00FF81F92
:101850003C181C001C003C00F800F007C01F003EB4
:101860000038003800380C1CFC1FF0070000000096
:101870000000000000000000000000000000000068
:10188000FF7FFF7FC001C001C001C001C001C001D6
:10189000C001C001C001C001C001C001C001C00140
:1018A0000000000000000000000000000000000038
:1018B000000000001C701C701C701C701C701C70E0
:1018C0001C701C701C701C701C701C703C783838AC
:1018D000F01FE00F0000000000000000000000000A
:1018E000000000000000000007E00E700E701C7089
:1018F0001C383C383838381C701C700CE00EE00E78
:10190000E007C007C00780030000000000000000DF
:1019100000000000000000000000000003C003C041
:1019200007C08661C663C663C663C6634E766C36FF
:101930006C366C362C3E3C3C3C1C3C1C00000000D1
:101940000000000000000000000000000000000097
:101950001EE03C707838781CF00EE007C003C0032E
:10196000C007E007600F301E183C1C380E7807F0E7
:101970000000000000000000000000000000000067
:101980000000000007E00E701C301C18381C780E98
:101990007007E003E003C001C001C001C001C00145
:1019A000C001C001000000000000000000000000B5
:1019B0000000000000000000FC3FFC3F0038001C5D
:1019C000000E000780038001C000E00070003800B6
:1019D0001C000E00FE3FFE3F000000000000000063
:1019E00000000000C03FC03FC001C001C001C001F5
:1019F000C001C001C001C001C001C001C001C001DF
:101A0000C001C001C001C001C001C001C001C001CE
:101A1000C03FC03F0000000006000C000C00180092
:101A200018003000300060006000C000C00080017D
:101A300080010003000300060006000C000C0018E3
:101A4000001800300030006000000000FC03FC03C0
:101A5000800380038003800380038003800380036E
:101A6000800380038003800380038003800380035E
:101A70008003800380038003FC03FC03000000005C
:101A800000000001000180038003C003C006E006DF
:101A9000600C300C3018181818180C300C30066018
:101AA0000000000000000000000000000000000036
:101AB0000000000000000000000000000000000026
:101AC0000000000000000000000000000000000016
:101AD000000000000000000000000000FFFFFFFF0A
:101AE000000000000000C0018003000700000000AB
:101AF00000000000000000000000000000000000E6
:101B000000000000000000000000000000000000D5
:101B100000000000000000000000000000000000C5
:101B20000000000000000000E007F80F181E001C75
:101B3000001CE01FF01F381C1C1C1C1C1C1C3C1E25
:101B4000F87BF078000000000000000000000000BA
:101B50001C001C001C001C001C001C009C07DC1F3F
:101B60007C1C3C381C381C381C381C381C381C3871
:101B70001C1C3C1EFC0FCC070000000000000000F5
:101B80000000000000000000000000000000000055
:101B9000C01FF03F782038001C001C001C001C00F7
:101BA0001C003C003800F820F03FC01F000000007F
:101BB0000000000000000000007000700070007065
:101BC00000700070C073F07F787C38701C701C70DF
:101BD0001C701C701C701C703C78387CF077E073B3
:101BE00000000000000000000000000000000000F5
:101BF0000000000000000000C007F00F781C38381B
:101C00001C381C38FC3FFC3F1C001C0038007820AE
:101C1000F03FC01F000000000000000000000000B6
:101C200000FF80FFC003C001C001C001FC7FFC7F3A
:101C3000C001C001C001C001C001C001C001C0019C
:101C4000C001C001C001C001000000000000000090
:101C50000000000000000000000000000000000084
:101C6000C073F07F787C38701C701C701C701C7006
:101C70001C701C703C78387CF077E0730070003882
:101C8000183CF81F000700001C001C001C001C0072
:101C90001C001C001C0FDC1F7C3C3C381C381C3812
:101CA0001C381C381C381C381C381C381C381C3894
:101CB000000000000000000000000000800380031E
:101CC0008003000000000000FC03FC03800380038D
:101CD00080038003800380038003800380038003EC
:101CE00080038003000000000000000000000000EE
:101CF000000E000E000E000000000000F80FF80FAC
:101D0000000E000E000E000E000E000E000E000E63
:101D1000000E000E000E000E000E000E0407FC0761
:101D2000F80100003800380038003800380038006A
:101D3000383C381E380E380FB807B803F803B8031C
:101D4000B807380F380E381E383C387800000000CD
:101D50000000000000000000F807F8070007000777
:101D6000000700070007000700070007000700073B
:101D7000000700070007000700070007000700072B
:101D80000000000000000000000000000000000053
:101D90000000000000000000CE31EE79FE7F9E774B
:101DA0009E738E738E738E738E738E738E738E731B
:101DB0008E738E7300000000000000000000000021
:101DC0000000000000000000000000001C0FDC1FED
:101DD0007C3C3C381C381C381C381C381C381C38DF
:101DE0001C381C381C381C380000000000000000A3
:101DF00000000000000000000000000000000000E3
:101E0000E003F80F3C1E1C1C0E380E380E380E383E
:101E10000E380E381C1C3C1EF80FE00300000000BA
:101E200000000000000000000000000000000000B2
:101E3000000000009C07DC1F7C1C3C381C381C3850
:101E40001C381C381C381C381C1C3C1EFC0F9C0702
:101E50001C001C001C001C001C00000000000000F6
:101E60000000000000000000E039F83F3C3E1C3854
:101E70000E380E380E380E380E380E381E3C1C3E0A
:101E8000F83BF038003800380038003800380000DF
:101E9000000000000000000000000000703E703FE5
:101EA000F031F03070007000700070007000700051
:101EB0007000700070007000000000000000000062
:101EC0000000000000000000000000000000000012
:101ED000E00FF01F781038003800F801F007801F7D
:101EE000003C00380038183CF81FF00700000000E4
:101EF00000000000000000000000000000000000E2
:101F0000E000E000FC3FFC3FE000E000E000E0001B
:101F1000E000E000E000E000E000E001C03F803FC2
:101F200000000000000000000000000000000000B1
:101F300000000000000000001C381C381C381C3851
:101F40001C381C381C381C381C381C381C3C3C3EC7
:101F5000F83BF03800000000000000000000000026
:101F60000000000000000000000000001E701C388F
:101F70001C383C383818381C701C700CE00EE00E11
:101F8000E006C007C007800300000000000000005A
:101F90000000000000000000000000000000000041
:101FA00003C087C38743C663C66346626E666E26F8
:101FB0006C362C363C3C3C3C3C1C181C00000000A1
:101FC0000000000000000000000000000000000011
:101FD000000000001E303C18780C700EF006E00384
:101FE000C003C003E007700F300E381E1C3C0E7893
:101FF00000000000000000000000000000000000E1
:1020000000000000000000001E701C301C38381852
:10201000381C781C700EF00EE007E007C003C00308
:10202000C0018001C001C000E0007C003C00000055
:10203000000000000000000000000000FC3FFC3F2A
:102040000038001C000E00078003C001E000700093
:1020500038001C00FC3FFC3F0000000000000000B6
:1020600000000000001F801FC003C001C001C001AC
:102070008003800380038003C001F800F800C001E2
:102080008003800380038003C001C001C001C0033E
:10209000801F001F0000000080018001800180017E
:1020A0008001800180018001800180018001800128
:1020B0008001800180018001800180018001800118
:1020C0008001800180018001000000007C00FC0094
:1020D000E001C001C001C001E000E000E000E0005C
:1020E000C001800F800FC001E000E000E000E000D0
:1020F000C001C001C001E001FC007C000000000044
:1021000000000000000000000000000000000000CF
:102110000000000000007860FC63C63F061E00005F
:1021200000000000000000000000000000000000AF
:1021300000000000FE7FFE7F7E7C3E7C1E7C0E7CCD
:102140007E7C7E7C7E7C7E7C7E7C7E7C7E7C7E7CBF
:102150007E7C7E7C7E7C0E600E60FE7FFE7F0000BB
:102160000000000000000000FE7FFE7F1E7C0E7855
:10217000C671E663E663FE63FE63FE71FE787E7CF5
:102180003E7E1E7F8E7FC67FC67F06600660FE7F16
:10219000FE7F00000000000000000000FE7FFE7FC8
:1021A0001E780E70C661E663E663FE63FE713E78DC
:1021B0003E78FE71FE63FE63E663E663C6610E7001
:1021C0001E78FE7FFE7F000000000000000000007F
:1021D0000000000000000000FF7FE143E363E363D1
:1021E000E363E363C7710F780F78C771E363E36359
:1021F000E363E363E143FF7F0000000000000000B1
:10220000000000000000000000000000FFFFFFFFD2
:1022100003000300030003000300030003000300A6
:102220000300030003000300FFFFFFFF00000000A6
:10223000000000000000000000000000000000009E
:10224000FFFFFFFF03000300F33FF33FF33FF33FC4
:10225000F33FF33FF33FF33F03000300FFFFFFFFB4
:10226000000000000000000000000000000000006E
:1022700000000000FF3FFF3F0030003000F000F0A2
:1022800000C000C000C000C000F000F0003000300E
:10229000FF3FFF3F000000000000000000000000C2
:1022A0000000000000000000FF3FFF3F0030003052
:1022B000FFF3FFF3FFC3FFC3FFC3FFC3FFF3FFF34E
:1022C00000300030FF3FFF3F000000000000000032
:1022D000000011241FBECFEFD0E1DEBFCDBF11E063
:1022E000A0E0B1E0E2E0F0EB02C005900D92A83270
:1022F000B107D9F722E0A8E2B1E001C01D92A732F0
:10230000B207E1F70E9491540C94BA570C94000064
:1023100090913C01981303C080913F0108959091E2
:102320003D01981303C080914001089580914101BF
:10233000089580E00E948C2981E00E948C2982E02F
:102340000E948C298DE30E94A65280E00E94A82959
:1023500081E00E94A82982E00E94A8290895A3E0B4
:10236000B0E0E5EBF1E10C940957A090FB01B090CF
:10237000FC0189836A834B837E018FEFE81AF80A98
:1023800000E011E0C12CF701D1907F01D114A9F038
:102390008C2D0E948C290E94CD29F8018081918189
:1023A0008093FB019093FC018D2D0E94A652A09278
:1023B000FB01B092FC010E94C529C3940E5F1F4F20
:1023C000F3E0CF12E0CF2396EAE00C942557EF928A
:1023D0000F93CF93DF9300D0CDB7DEB729830A8365
:1023E0000E94F326082F0E94152985E40E94A65218
:1023F0002981622F70E080E090E020E040E00E94C0
:10240000852A0E94C52941E08A818A3008F040E08F
:102410008A816AE00E946656682F70E080E090E052
:1024200025E20E94852A0E94C529011529F12091E3
:10243000F60129834E2D6091510180914D019091BB
:102440004E010E94AE2B023081F40E94152960914A
:10245000F70189810E944D514E2D60915601809166
:102460005201909153010E94AE2B0F900F90DF917B
:10247000CF910F91EF9008950E94C929F6CFEF9266
:10248000FF920F93CF93DF930F92CDB7DEB72983DF
:102490000E94F326082F0E94152985E40E94A65267
:1024A0002981622F70E080E090E020E040E00E940F
:1024B000852A0E94C529011529F18091F601898399
:1024C000A7016091510180914D0190914E010E94B0
:1024D000A02D023081F40E9415296091F7018981B5
:1024E0000E944D51A7016091560180915201909137
:1024F00053010E94A02D0F90DF91CF910F91FF907B
:10250000EF9008950E94C929F6CF0F930AE020E6C4
:102510000E94F326082F0E94152985E40E94A652E6
:1025200020E040E060E670E080E090E00E94852AD4
:102530000E94C52925E240E061E070E080E090E083
:102540000E94852A0E94C529011591F060915101D0
:1025500080913C010E94CA2B023041F40E94C5299F
:102560006091560180913D010E94CA2B0F91089500
:102570000E94C929FBCF82E00E945D2A8EEB94E085
:102580000E945C2987EB94E00E94E8298EE080930A
:10259000C90181E00E94542C809128018F5F8093B3
:1025A000280108958091C1018130C9F483E694E047
:1025B0000E944D290E9415298091C6010E948C29F4
:1025C0000E94CD290E94C5296091C7017091C80160
:1025D00080E090E026E54DEF0E94E82A08958230E1
:1025E00011F40E94BB120895A2E0B0E0EAEFF2E11C
:1025F0000C94115769834A834115F9F00E94A82968
:1026000082E192E00E944D298A818115C9F0898179
:102610000E94A8290E94C5296091AE017091AF0166
:102620008091B0019091B10124E04091AD010E94F0
:10263000E82A2296E2E00C942D570E948C29E0CFE4
:1026400089810E948C29E6CFA0E0B0E0EAE2F3E1C4
:102650000C9407578091C4011091AB016D01CBEA36
:10266000D1E0813009F43EC0B2EBCB2EB1E0DB2EDD
:10267000CBEAD1E0833071F5CBEAAC2EC1E0BC2EC1
:10268000C2EBD1E0F50103811481258136816B8194
:102690007C818D819E81E2804A810E94D2198130A5
:1026A00009F45E012796F1E0C03CDF0759F7CBEA59
:1026B000D1E08BEAA81681E0B80611F4C2EBD1E0B4
:1026C0006E01E7E0CE0ED11CAC14BD0419F4F7E0A6
:1026D000CF0ED11C8881F6011081811719F011816C
:1026E000811319810E94362A8881811709F495C0C7
:1026F0000E948C2982E192E00E944D29812F0E9444
:102700008C29C114D10459F082E192E00E944D2934
:10271000F6018081811709F482C00E948C290E94F1
:10272000452A0E9415296B817C818D819E8124E040
:102730004A810E94E82AC114D10409F472C00E949F
:10274000C529F601638174818581968124E04281E7
:102750000E94E82AF60103811481258136816B816C
:102760007C818D819E81E2804A810E94801A182F8F
:102770006B817C818D819E81212F4A810E94621A0A
:102780004B015C01F6016381748185819681212F63
:1027900042810E94621A64017501C60ED71EE81EAE
:1027A000F91EC114D104E104F10491F18DE292E02B
:1027B0000E94FA2924E0412FB601C7010E94E82AAD
:1027C0008AE292E00E94FA29A4E6B0E09401A50111
:1027D0000E94F6569601A7010E94A85669017A0147
:1027E00025E240E0B601C7010E94E82A0E94C529FF
:1027F00087E292E00E94D12964E670E080E090E0F8
:102800006C197D098E099F0925E240E00E94E82AA3
:10281000CDB7DEB7ECE00C942357898169CF818175
:102820007CCFCE010E945C40813071F50E94C529A9
:1028300060913101709132018091330190913401A6
:1028400028E4409130010E94E82A609131017091A2
:1028500032018091330190913401A8E4EA2E08EC12
:1028600026E0409130010E94E711609131017091A2
:102870003201809133019091340104E62CE04091C3
:1028800030010E94E711C4CF6B817C818D819E81D4
:1028900024E0E22E02E328E14A810E94E7116B81E5
:1028A0007C818D819E8136E0E32E36EFF32E28E188
:1028B0004A810E943F126B817C818D819E8144E020
:1028C000E42E0AE028E14A810E94E7116B817C81B5
:1028D0008D819E8155E2E52E5BECF52E28E14A8143
:1028E0000E943F126B817C818D819E81E4E0EE2EFF
:1028F00020E64A810E94E7116B817C818D819E8157
:10290000F5E2EF2E20E64A810E943F126B817C8126
:102910008D819E814A810E9485127ACFCF92DF926B
:10292000EF920F931F93CF93DF933BE7C32E31E0DA
:10293000D32EE60180E1C80ED11C0B811C812D81B4
:102940003E81F6016381748185819681EA804281AE
:102950000E94D219813009F4E601FBE9CF16F1E0BB
:10296000DF0641F70E94362A88810E948C298FE178
:1029700092E00E944D2989810E948C290E94452A5B
:102980000E9415296B817C818D819E8126E44A817C
:102990000E94E82ACE010E944A318C010F3F1007A5
:1029A00049F00E94C529B80180E090E024E04EEF94
:1029B0000E94E82A8B859C85892B61F085EA92E04C
:1029C0000E94FA296B857C8580E090E021E44D85AA
:1029D0000E94E82A8E859F85892B61F083E292E030
:1029E0000E94FA296E857F8580E090E025E24FEF16
:1029F0000E94E82A6B817C818D819E8126E4E22EF3
:102A000008EC26E04A810E94E7116B817C818D8170
:102A10009E8104E62CE04A810E94E711DF91CF916C
:102A20001F910F91EF90DF90CF900895EF920F9349
:102A30001F93CF93DF9300D0CDB7DEB789839A83FE
:102A400060914D0170914E0180914F019091500124
:102A500027EFE22E0AE010E020E030E04091510143
:102A60000E94D21987FD11C089819A810E94FA299A
:102A700060914D0170914E0180914F0190915001F4
:102A800021E4409151010E94E82A0F900F90DF91BC
:102A9000CF911F910F91EF90089540E0FC0160816C
:102AA00081810E947935EBE7F1E063817481858152
:102AB000968126E442810E94E82A0895A1E0B0E0D0
:102AC000E4E6F5E10C94115769830E94A82981E09E
:102AD0000E94A65289810E94A8292196E2E00C94C6
:102AE0002D57A0E0B0E0E7E7F5E10C9409570E940C
:102AF000362AE090C50121E0E2120BC0C0905801D7
:102B0000A5E0DA2EBD2CFD2C00E010E0C7E5D1E0F9
:102B10006DC082E0E81218C0F090570190915D01FD
:102B200080915801D0905E01F91609F4DEC0D816E4
:102B300009F4FFC0FD1003C0981709F4F4C095E034
:102B4000D92EBD2CCD2CF8C093E0C0E0E91679F069
:102B50008BE192E00E94D1298091C501805D0E94A5
:102B6000A652CDB7DEB7EAE00C942557C22F4C2F02
:102B700050E0E7E5F1E080E090E026E0C29FD00180
:102B80001124A85ABE4FC81729F03C912081321752
:102B900009F4A9C00196369683309105A1F782E029
:102BA00090E021E02C0F233008F336E03C9FE00159
:102BB0001124C95ADE4F00E010E0253038F0389F6C
:102BC0008001399F100D1124095A1E4F86E0849F01
:102BD000F001859FF00D1124E95AFE4FC18073E08A
:102BE000F72EE5E0DE2EBD2CEE24E39488810E94D2
:102BF0008C298BE192E00E944D298C2D0E948C291A
:102C00000115110561F0FC109DC0F801A08087E15D
:102C100092E00E944D29FC2C8A2D0E948C290E9452
:102C2000452AF5E0BF16E8F449E16D2D8B2D0E9491
:102C30000B318130B1F40E94C52923E08EE093E08E
:102C4000F21610F082E193E00E944D298FE30E947A
:102C5000A6520E94152940E06D2D8B2D0E94F41282
:102C6000E12C89EF92E00E94FA296A817B8180E061
:102C700090E026E54DEF0E94E82A0E94C529011543
:102C8000110509F067C08C819D818A3F910560F430
:102C900088E20E94A6526C817D8180E090E00E94D3
:102CA0007D2B89E20E94A652688189810E941125AC
:102CB00081E00E9400378FEE92E00E941615F1E04D
:102CC000EF124FCF87EF92E00E94FA29CE010E94C7
:102CD0004D150115110509F444CF0E94C529C801FD
:102CE0000E944D153ECF26E060CFB82E65E0C62E7F
:102CF000E22E93E0F91618F50E948C2987E192E004
:102D00000E944D298F2D0E948C290DE511E0C7E509
:102D1000D1E0FC1409F479CFF801A1808BE192E0B5
:102D20000E944D2979CFCF2C45E0D42EBD2CE12C2B
:102D3000E0CFD92EBF2CC82E85E0F82EE22E0DE56F
:102D400011E0E4CEF3E0FF1639F3F801A08087E14B
:102D500092E0E6CFF8016281738180E090E026E5A1
:102D60004DEF0E94E82AABCF8F929F92AF92BF9215
:102D7000CF92DF92FF920F931F93CF93DF93109127
:102D80003E01D0913C01C0913D018091C10180FD87
:102D9000E9C0FD2E0C2FDC2EC12FD12F1F2D9EE060
:102DA000A92E93E0B92E6FEF77E08AE494E00E94B9
:102DB000312A6FEF77E0C5010E941E2A8091C10180
:102DC00082FF03C08BE20E94A6520E9415290E9436
:102DD00099116C2F8D2D0E946837892B31F00E943C
:102DE000C5296C2F8D2D0E945E1549E16D2F812F15
:102DF0000E940B31813061F40E94152941E06091FD
:102E00003E0180913C010E94F41284E08093FF0116
:102E10008AE093E00E94FA296091490170914A0189
:102E200080914B0190914C010E947D2B0E94C529FD
:102E30008091420180FF9EC085E60E94A65284E3F5
:102E400092E00E94D6298091420180FF97C083E4DE
:102E50000E94A6520E94C5296091470170914801C5
:102E6000872F880F880B982F21E44AEF0E94822B2E
:102E7000612F8D2F0E9468376C01C0E0D0E0892B54
:102E800089F186E093E00E94FA29F601C281D3819C
:102E90008090490190904A01A0904B01B0904C0164
:102EA000F4E68F169104A104B104A8F0F601248180
:102EB0003581CE01821B930B63E070E00E94945633
:102EC000C61BD70BFAEF8F169104A104B10418F0BA
:102ED000E901C60FD71FBE0180E090E026E54DEF67
:102EE0000E94E82A8CEF92E00E94161580E392E09F
:102EF0000E94FA296091520170915301809154010E
:102F00009091550126E4409156010E94E82AC53F60
:102F1000D140E0F06F2D802F0E946837EC01892BA3
:102F2000A9F08A819B81823C914080F40E941529FE
:102F30006F2D802F0E945E150E94C5296A817B81BA
:102F400080E090E026E54DEF0E94E82ADF91CF91E6
:102F50001F910F91FF90DF90CF90BF90AF909F9007
:102F60008F900895FC2E0D2FD12E82E1A82E83E0A4
:102F7000B82E19CF81FF63CF83E65FCF81FF6ACF81
:102F800085E466CF0F931F93CF93DF93D0913D01DC
:102F9000C0913E018091C10180FD03C08C2FCD2FD7
:102FA000D82F6D2F8C2F0E9468378C01892B31F020
:102FB0000E94C5296D2F8C2F0E945E158091C10142
:102FC00082FF3BC08091450190914601892B81F0A1
:102FD00083EF92E00E94FA296091450170914601C9
:102FE000872F880F880B982F26E54DEF0E94822BA4
:102FF00086E193E00E94FA29609152017091530199
:10300000809154019091550126E4409156010E940F
:10301000E82A8091430190914401892B71F081EA63
:1030200092E00E94FA29609143017091440180E08E
:1030300090E024E04EEF0E94E82A01151105A1F06E
:103040000E94152981E00E94A6520E94C52989EF9D
:1030500092E00E94D129F8016281738180E090E0C2
:1030600026E54DEF0E94E82ADF91CF911F910F9145
:1030700008950E94C5298091C10180FF08C08EE497
:103080000E94A65289E293E00E944D29089580E5AE
:10309000F7CF0E94C5298091C10182FF05C084E25B
:1030A00093E00E944D2908958FE193E0FACF0E94AA
:1030B000362A8091C10184FF3AC081E393E00E94E7
:1030C0004D298DE293E00E944D290E94391880918C
:1030D000C10184FD0E9449180E94452A0E941529B9
:1030E0000E9499110E94C2178091C10183FF1EC0E6
:1030F00089EA92E00E94161580914701909148015B
:10310000892BA1F087E992E00E94FA290E941529F3
:103110000E94C5296091470170914801872F880F4F
:10312000880B982F26E54DEF0E94822B08958AE4A4
:103130000E94A652C6CF0E94362A8AE193E00E94DE
:103140004D290E9439180E9449180E94452A0E9460
:1031500015290E9499110E94C21708958091C001FB
:103160006FEF77E08232E9F486E494E00E941E2A51
:103170000E9415290E949911809143019091440168
:10318000892B71F081E093E00E94FA29609143015C
:103190007091440180E090E026E54DEF0E94E82A1E
:1031A000089580E494E0E2CF6FEF77E08CE394E061
:1031B0000E941E2A0E9415290E9499118CEE92E00D
:1031C0000E94FA2960913A0170913B0180E090E001
:1031D00026E54DEF0E94E82A89EF92E00E94FA2945
:1031E000609138017091390180E090E026E54DEF63
:1031F0000E94E82A08956FEF77E080ED93E00E9447
:103200001E2A0E9415290E94991187E392E00E94CC
:10321000FA29EBEAF1E0638174818581968124E0EB
:1032200042810E94E82A08958EE10E94232480931F
:10323000EE019093EF0188EC8093EB018EE10E9408
:1032400023242091E401820F911D27FD9A958093FC
:10325000EE019093EF0189E18093EB0108950E94C4
:10326000D8518FEF97E08093FB019093FC0181E0B0
:103270000E945D2A87E394E00E945C29F8940FB6CF
:10328000F894A89580916000886180936000109206
:1032900060000FBE469883B7817F846083BF83B789
:1032A000816083BF889583B78E7F83BF0895CF9356
:1032B0008091F2019091F301843C29E0920740F063
:1032C0008838934150F120EE37E0CFE08DE004C024
:1032D00020E038EFCEE08CE02093FB013093FC013E
:1032E0000E94A6528C2F0E94A6520E94C52980EEF1
:1032F00097E08093FB019093FC018091F201909103
:10330000F3016AE070E00E94805680E090E026E5DC
:103310004EEF0E94E82ACF91089520EE3FEFCEE0D5
:10332000D5CF85E00E9423249C01AEEBBFE00E9434
:10333000475628EE33E040E050E00E94A8562E5D4C
:103340003E4F2093F2013093F30184E68093F40121
:10335000243C394080F480EE97E08093FB01909309
:10336000FC010E94D8510E94571988EB9BE00E94F3
:103370006E1F0E942F190895CF939B01AC01C1E0ED
:103380002A3031054105510518F48C2FCF9108954D
:10339000B901CA012AE030E040E050E00E94A8569E
:1033A000CF5FEECF4F925F926F927F928F929F92FC
:1033B000AF92BF92EF920F931F93CF93DF930F9231
:1033C000CDB7DEB72B013C014983480159019B0170
:1033D000AC0111E02A3031054105510508F044C027
:1033E0009401A50101E02A3031054105510508F09D
:1033F00045C04114510461047104F9F08114910431
:10340000A104B10409F45CC04981410FE00EE41647
:103410000CF456C009F052C0E12FF02FF117C4F19F
:1034200010170CF43FC0101B100FE117ECF18414BF
:103430009504A604B70408F443C081E04814590475
:103440006A047B0408F080E081950F90DF91CF91B2
:103450001F910F91EF90BF90AF909F908F907F90B2
:103460006F905F904F900895B901CA012AE030E053
:1034700040E050E00E94A8561F5FACCFB901CA01DE
:103480002AE030E040E050E00E94A8560F5FABCF4A
:10349000AAE0B0E09401A5010E94F6564B015C0140
:1034A000FF5FBCCF10E0C0CFAAE0B0E09201A30163
:1034B0000E94F6562B013C01EF5FB7CF8FEFC5CFCF
:1034C00081E0C3CFCF93DF93C42FD22F9B01CD17C1
:1034D00021F4B901DF91CF91089554F4B9012AE0A4
:1034E00030E040E050E00E94A856CA01CF5FEFCF25
:1034F000AAE0B0E0AC010E94F6569B01C150E7CFB4
:103500008F929F92AF92BF92EF920F931F93CF93A0
:10351000DF93C42F4801590111E06A30710581051C
:103520009105E0F4DC2FD10F01E08AE088169104C8
:10353000A104B104E8F48E2D800F8D172CF5153001
:1035400014F0CCEFCD0F8C2FDF91CF911F910F9105
:10355000EF90BF90AF909F908F9008952AE030E059
:1035600040E050E00E94A856B901CA011F5FD5CFC4
:10357000B401C5012AE030E040E050E00E94A856C6
:1035800049015A010F5FD1CF39F034F0CCEFC80FA9
:103590000530CCF6CE2DD7CF0117ACF2FBCF1F9361
:1035A000CF93DF93182FC82FD92FCE010E949457A5
:1035B000811106C08C2F811BDF91CF911F9108953F
:1035C0002196F3CFCF93DF93D82FC8EC811101C0A0
:1035D000C4E6C0FF0CC042980E948454D11102C0BE
:1035E0000E948454C150A9F7DF91CF910895429A67
:1035F000F3CFCF93C7B187B1877E87B90E9480543C
:1036000096B193FB882781F994FD8160C7B99091A9
:103610000802913031F48093070210920802109250
:103620000A0290910A022FEF290F293F18F49F5F99
:1036300090930A029091070280930702891711F173
:10364000282F292720FF2695213031F5990F22E7D1
:1036500030E002C0359527959A95E2F723708213E2
:1036600013C084E0909109029F5F9093090220911A
:103670000802281759F091E09093090290930A02EA
:103680008093080280E006C085E0ECCF9430D0F350
:1036900010920902CF91089581E0F2CFA3E0B0E04B
:1036A000E4E5FBE10C9403577C01162F81E0809345
:1036B000080210920902809305028091E901C12C51
:1036C000D12C85FF03C020E5C22ED12C12FF05C0EE
:1036D0008091E80180FD57C01C7FA090FB01B09055
:1036E000FC0180EE9FEF8093FB019093FC0115FF9E
:1036F0004DC080910B0290910C020E94CF1A815014
:103700009090F801891508F041C0981A1C7F6091CB
:10371000F901892D0E944D5180910B0290910C026C
:103720000E944D29612C92E09983812C82E3782EAE
:103730001B8221E02A8300E011FB552451F814FB81
:10374000442444F8E114F10439F083E0E816F1046C
:1037500038F192E0E91AF10837994CC08EE190E017
:103760000E946E1F2A811B822115E1F037991AC031
:103770008B818F5F8B838B3109F4CAC08AE090E024
:103780000E946E1FF3CFE12CF12CA7CF212F2370C5
:10379000622E211519F081E00E941F53912CC3CF96
:1037A0001A82DACF912F98709A8301E013FFB2C08A
:1037B00082E390E00E946E1F24E12A8301E03799A2
:1037C0000DC08EE190E00E946E1F379907C088EC13
:1037D00090E00E946E1F81E08A8303E09A819150FD
:1037E0009A838AE090E00E946E1F2A812111E7CF20
:1037F0001B8290C00E94F91A482F811521F1811473
:1038000011F080135BC0839480910A02682D0E949E
:10381000665694E1899F9001112494E0369527958E
:103820009A95E1F795E0293230F4922F9695969586
:1038300096952831D8F129812815D9F19CE0970D6A
:10384000782E790E042F811421F080910A028715B9
:10385000A8F582E090E00E946E1F8B818F5F8B83C2
:1038600068E20E946656911108C08091F40182308E
:1038700008F442C081508093F4019B81983C09F088
:1038800049C0511441F02A812130E1F580E00E94C5
:103890001F5382E08A8321E0C216D10408F4A8CF26
:1038A00009F442C081E0C81AD108A2CF23E02983DD
:1038B000C2CF87E0891B80930502042FA092FB01F1
:1038C000B092FC01611419F080E00E941F53911422
:1038D00041F06091F901892D0E944D5180E00E94D4
:1038E000785100930402073611F40E942F19802F9B
:1038F0002396E0E10C941F57411409F4BECF0E94B7
:103900009119BBCF81E00E941F5391E09A83C3CFEE
:103910001A8202E08091E90180FF0AC08091E901EA
:103920008E7F8093E901CACF1B821A8207E6F2CF0D
:103930008A81811107CFC2CF65E188EB9BE00E94AD
:103940004E1B08950F931F93CF93DF93D82FC0E0A2
:1039500002E814E0811519F00BE714E0C3E00E94BF
:103960005E25C817A1F00E94D85182E00E945D2A0E
:10397000C8010E945C298CE694E00E94E8290E941C
:103980005E25C8130AC088EC90E00E946E1F81E09B
:10399000DF91CF911F910F91089560E184E690E04F
:1039A0000E944E1BD13059F7811549F380E0F0CFCA
:1039B000681310C080EE9FEF8093FB019093FC0191
:1039C0008AE20E94A65280EE97E08093FB019093DA
:1039D000FC0108950E94C5290895A5E0B0E0E3EF39
:1039E000FCE10C940657882E69834A835B83690146
:1039F000EE24EA94E80E9090F901FF24FA94F90C71
:103A00000E94362A0E94CD290E94452A82E08D8399
:103A10001C8210E08EEF782E790C81E0F81204C041
:103A2000ED81EF5FED831C83AA80BB80FC81AF0E2C
:103A3000B11CAF0EB11C00E00F1538F181E0F81297
:103A400009C06091F9018091F8010E944D518CE309
:103A50000E94A65260E180E090E00E944E1B8130FF
:103A600009F48BC0843009F45AC0853009F071C064
:103A700011113EC00E2DF1E0EF1428F0E82DE919E8
:103A8000EF5FEC83F2E0FD8348C062E0600F81E00D
:103A90000E944D5181E0F81629F0612F8C81800F32
:103AA0000E94D81CED81E13089F0F981F130B9F440
:103AB000F501808191810E944D29C114D10419F032
:103AC000C6010E944D2980E00E947851F2E0AF0EBD
:103AD000B11C0F5FE01608F0AFCF0F2DADCFC501C1
:103AE0000E949C57BC0180E090E00E947D2BE5CFB6
:103AF0000FEF010F8C81801338C08115C9F11F159C
:103B000068F1E12FEF19EF5FEC83F2E0FD831230F3
:103B1000A9F1173611F40E942F19102F7ECF1E1114
:103B200007C0EF14F8F481E08D831C8200E0F5CF2C
:103B300001E0010F8C81870D081317C00E15C0F42A
:103B4000882D801B8F15B8F4E82DE919EF5FEC8301
:103B500099CF012F182F81E08D83D9CFE2E0ED833B
:103B60001C82D5CFF2E0FD83E0CF81E08D83D5CFFD
:103B7000E1E0ED83D2CF1C8385CF012F0E94D85185
:103B800084EF91E00E946E1F802F2596EDE00C944B
:103B90002257AAE0B0E0EFECFDE10C9411578A87C0
:103BA00081EB92E089839A8381E08F838EEA92E0B1
:103BB0008B839C8382E0888787E594E08D839E8356
:103BC00019860E94D8518A856FEF77E08230D1F450
:103BD0008AE994E00E941E2A20E030E0AE014F5FA7
:103BE0005F4F61E083E00E94ED1CFE01E80FF11DD4
:103BF0006781611519F08A850E9401202A96E2E00A
:103C00000C942D5785E994E0E5CFABE4B0E0EBE010
:103C1000FEE10C9411578FE194E089839A8386E04A
:103C20008BAB83E194E08B839C8387E08CAB8DE04E
:103C300094E08D839E8388E08DAB85E693E08F834F
:103C4000988781E28EAB83E992E089879A8789E041
:103C50008FAB84EC93E08B879C8783E188AF8FE9FF
:103C600093E08D879E8786E189AF85E993E08F8712
:103C7000988B87E18AAF8BE893E0898B9A8B8BE1F5
:103C80008BAF8FE793E08B8B9C8B8CE18CAF84E7C1
:103C900093E08D8B9E8B8DE18DAF8BEF93E08F8BBF
:103CA000988F8AE08EAF8CEE93E0898F9A8F8BE0AD
:103CB0008FAF84ED93E08B8F9C8F8DE021968FAF3B
:103CC00021978DE493E08D8F9E8F87E222968FAFB0
:103CD00022978CE393E08F8F98A389E223968FAF8E
:103CE00023978FE294E089A39AA381E024968FAF73
:103CF00024978FE994E08BA39CA382E025968FAF55
:103D000025978AE994E08DA39EA383E026968FAF42
:103D1000269785E994E08FA398A784E027968FAF34
:103D2000279789E894E089A79AA785E028968FAF1E
:103D3000289780E693E08BA79CA78AE129968FAF0E
:103D4000299788E593E08DA79EA784E22A968FAFF6
:103D50002A9780E793E08FA798AB84E12B968FAFEB
:103D60002B9787E594E089AB9AAB2C961FAE2C97E6
:103D70000E94D8516FEF77E08AEA94E00E941E2AF1
:103D800020E030E0AE014F5F5F4F61E089E10E94CB
:103D9000ED1CFE01E80FF11D83A9C55BDF4FE2E0DA
:103DA0000C942D57CF930E94051E9091E80190FF2F
:103DB00005C09091E9019F7D9093E9018A3240F519
:103DC000E82FF0E0E952F84A0C94E9560E94F422F8
:103DD000C82F8091E80180FF05C08091E9018062D1
:103DE0008093E901C1116DC00E94D85181E00E9409
:103DF0005D2A8CE594E00E945C290E949C1C8C2F1B
:103E0000CF9108950E94AF20E3CF82E00E94C91DA8
:103E1000C1E0DFCF81E0FACF0E944520F9CF0E94B8
:103E2000D8516FEF77E08FE194E00E941E2A24E3DF
:103E300034E04CE851E062E088E00E94ED1C90E044
:103E4000880F991F84579E4F0E949C570E9462477B
:103E5000DFCF0E943648DCCF0E94B941D9CF0E9403
:103E60004D42D6CF0E947A49D3CF0E942843D0CF6B
:103E70000E946E50CDCF0E947843CACF0E942F1966
:103E8000C7CF0E945844C4CF0E948F44C1CF0E9424
:103E9000D92CBECF0E94F844BBCF0E944745B8CF73
:103EA0000E94E945B5CF0E943546B2CF0E94222D2F
:103EB000AFCF0E948146ACCF0E942547A9CFC9E66B
:103EC00088CFC93609F09BCF0E94D85181E00E946B
:103ED0005D2A81EB94E00E945C2991CF3091EA0148
:103EE000A0E0B0E0F4E0880F991FAA1FBB1FFA956D
:103EF000D1F73630C1F4492F5A2F6B2F70E04F5F46
:103F00005F4F6F4F7F4FE4E0440F551F661F771FD1
:103F1000EA95D1F7481759076A077B07C8F4841B4D
:103F2000950BA60BB70B1092B1001092B20022E0D5
:103F30002093B0002093700023B7217F232B23BF51
:103F400031E00FB607FC02C0789430E0E7E019C01A
:103F500030E0E9CFA895AC01BD011097910521F0A3
:103F60004FEF50E060E070E0841B950BA60BB70BA1
:103F700041504093B300E093B1002091B100211172
:103F800008C010979040804029F7311101C0F89483
:103F9000089523B7216023BF889523B72E7F23BFC1
:103FA000ECCF1F921FB61F9211241092B1001F90E8
:103FB0001FBE1F90189588EC8093DD011092DE01E2
:103FC0008CED8093DF011092E00184E18093E101A8
:103FD0001092E2018BE28093E3011092E4011092CF
:103FE000E5011092E6010895EDEDF1E080E0919198
:103FF000890F91E0E73EF907D1F7811101C081E017
:104000000895A3E0B0E0E7E0F0E20C941157898353
:104010008FEE94E0623011F08AEF94E08A839B8304
:104020000E94F41F8093E70199814BE050E06A8180
:104030007B81923041F48DED91E00E94A25723964E
:10404000E2E00C942D578DED91E00E948457809111
:10405000E7018983811599F30E94F41F99819817CC
:1040600071F30E94D85182E00E945D2A8EE494E0B0
:104070000E945C298CE594E00E94E82980ED97E09D
:104080000E946E1F0E94DB1FDACF81E08093F50152
:104090000E94D8518BED92E00E94D1296091DD0100
:1040A0007091DE0180E090E024E04FEF0E94E82A6A
:1040B00087ED92E00E94FA296091DF017091E001A2
:1040C00080E090E024E04FEF0E94E82A81EC92E04B
:1040D0000E94FA296091E30170E080E090E026E41C
:1040E00044EF0E94E82A8EEB92E00E94FA29609148
:1040F000E1017091E20180E090E024E04EEF0E9447
:10410000E82A87EE92E00E94FA296091EE01709110
:10411000EF0180E090E026E54DEF0E94E82A8AEB6F
:1041200092E00E94FA296091F0017091F10180E023
:1041300090E026E54DEF0E94E82A84EB92E00E9491
:10414000FA296091E501762F770F770B872F972F4C
:1041500026E54DEF0E94822B0E949C1C0895A6E04C
:10416000B0E0E5EBF0E20C94015781E00E94A21C64
:10417000811509F437C2712C412C512C1C8242014B
:104180001B826201212C5201312C710181011D829F
:104190001E8221E02A8354E0652E2A81273009F40B
:1041A000BEC00E94D8510E94362A81E40E94A652C5
:1041B0008A81805D0E94A6520E94452A0E94C529DC
:1041C00031E039838A81843009F475C168F4823022
:1041D00009F436C1833009F04DC080E00E94A21C72
:1041E00080E024E629836FC09A81953009F091C15F
:1041F0003981313021F487ED92E00E944D291BB8BE
:1042000062B861B880E48AB92091F0013091F1017F
:104210002D833E8382E00E9486242D813E81281BCF
:10422000390B2D833E8382E082B981B930E13AB9FE
:104230000091F0011091F10181E00E948624081B99
:10424000190B8D819E81800F911F480E591E81E0B0
:1042500082B981B96AB8E090F001F090F10180E094
:104260000E948624E81AF90A4E0C5F1C8C818D5F2F
:104270008C831FC12981213041F487EE92E00E9496
:10428000D12984EB92E00E944D290E941536780EC8
:104290000E9415296091E401762F770F770B872F05
:1042A000972F26E54DEF0E94822B0E94C529609131
:1042B000E501762F770F770B872F972F26E54DEFA8
:1042C0000E94822B80E011B812B81AB81BB8811571
:1042D000B9F00E9415292D813E81B90180E090E05E
:1042E0000E947D2B0E94C529B80180E090E00E94C9
:1042F0007D2B0E94C529B70180E090E00E947D2BB4
:104300003981343609F468C160E188EE93E00E9497
:104310004E1B811509F45AC1823009F05DC13FE09E
:1043200033125EC1C5016FE070E00E948056609359
:10433000E30181E089839FE029120CC0C6016FE090
:1043400070E00E9480566093E1017093E201298140
:104350002F5F29833B813F3009F044C18C818F302E
:1043600009F040C1E5E0F0E0C401BF010E948056C1
:104370009B01C201BF010E9480568B018091F00118
:104380009091F1016C01CC0CDD1CC80ED91EC90145
:10439000860F971FC81AD90AE12CF12CD9012CEAF3
:1043A00037E041E050E00E94F6569601A7010E94D6
:1043B000A856B901CA016B5F7F4F8F4F9F4F643C76
:1043C00029E072078105910560F4A7012AE030E039
:1043D0000E94A8562093DD013093DE0139813F5FB2
:1043E0003983D8012CEA37E041E050E00E94F656CC
:1043F0009601A7010E94A856B901CA016B5F7F4FC1
:104400008F4F9F4F603F2AE072078105910508F0AA
:10441000E9C0A7012AE030E00E94A8562093DF01FE
:104420003093E00135E07312DDC08981833009F0FB
:10443000D9C00E94452081E02696E2E10C941D57E8
:104440003981313041F48EEB92E00E94D12984EC25
:1044500092E00E944D2960E081E00E94112580E0F9
:104460000E94FA2D8D839E838D819E8186399105D0
:1044700018F4C80ED91E239460E082E00E94112532
:1044800080E00E94FA2D8C018639910518F4C80E3F
:10449000D91E239461E082E00E94112580E00E94F1
:1044A000FA2D7C0196E9E916F10418F4CE0CDF1C14
:1044B000239481E008CF3981313021F48BED92E0F3
:1044C0000E944D2912B861B880E48BB98AB982E0A4
:1044D0000E9486248D839E8382E081B990E19BB9FE
:1044E0009AB981E00E9486248C018D819E81800F83
:1044F000911F880E991E81E081B96BB86AB880E07F
:104500000E9486247C01880E991E2B812D5F2B83AF
:10451000D0CF9981913041F481EC92E00E94D12971
:1045200084EC92E00E944D2940E060E081E00E942E
:10453000793580917D01843F91F480918201909141
:104540008301A0918401B091850185369105A10573
:10455000B10528F48D839E83A80EB91E339441E0E3
:1045600060E082E00E94793580918D01843F89F47A
:104570008091920190919301A0919401B091950145
:1045800085369105A105B10520F48C01A80EB91E50
:10459000339442E061E082E00E94793580919D0190
:1045A000843F09F086CF8091A2019091A301A09150
:1045B000A401B091A50185369105A105B10508F0CA
:1045C00078CF7C01A80EB91E339473CF89818F5F99
:1045D0008983863009F0F6CD9A819F5F9A83DDCD7D
:1045E0001982A9CE80E028CFA0E0B0E0EAEFF2E2A5
:1045F0000C94045781E00E94A21C811509F4C2C0EA
:10460000E12CF12C8701E701CC24C39440E8642E0F
:1046100040E2742E58E0552E87E0C81609F4B2C067
:104620000E94D8510E94362A84E50E94A65280E357
:104630008C0D0E94A6520E94452A0E94C529DD24A5
:10464000D39424E0C21609F4DCC035E0C316A0F50B
:1046500082E0C81609F49CC023E0C21247C021E0E2
:10466000D21208C08DEC92E00E94D12984EC92E035
:104670000E944D29C091F001D091F101D695C795C6
:104680006BB830EA3AB980E00E9496247C01EC1ABB
:10469000FD0A88E88AB981E00E9496248C010C1BEF
:1046A0001D0B7BB828E22AB982E00E9496249C0167
:1046B0002C1B3D0BE901A3C0C312AAC031E0D312E9
:1046C00004C083EE92E00E944D291BB86AB882E0D4
:1046D0000E949624EC017AB881E00E9496248C0115
:1046E0005AB880E00E9496247C0189C08EE10E9425
:1046F00023248EE10E9423245C0181E0D81204C0AF
:1047000087EE92E00E944D290E941529B50180E0B4
:1047100090E026E54DEF0E94E82A80E01AB81BB829
:10472000811509F10E94152920E040E0BE018D2F7E
:10473000880F880B982F0E94822B0E94C52920E0A9
:1047400040E0B801812F880F880B982F0E94822BA0
:104750000E94C52920E040E0B7018F2D880F880B0B
:10476000982F0E94822B24E6D21609F46AC060E1D9
:1047700088EE93E00E944E1B811509F45EC08230E2
:1047800009F05FC081E0CDB7DEB7EFE00C942057B1
:1047900021E0D21208C082ED92E00E94D12984EC7F
:1047A00092E00E944D292091F0013091F101A7EB98
:1047B000B2E00E94475620E735E040E050E00E941A
:1047C000CA5649015A0130E43BB980E58AB980E014
:1047D0000E9496247C01E818F90824E42AB981E0B3
:1047E0000E9496248C010819190930E13BB984E133
:1047F0008AB982E00E949624EC01C819D90981E0A7
:104800008DCF80E00E94A21C80E094E6D92E86CF56
:1048100081E0D81204C08FED92E00E944D296BB860
:104820006AB882E00E949624EC017BB87AB881E0F5
:104830000E9496248C015BB853CFD39436E0D312F8
:1048400000CFC394E9CECF93DF93C82FCF71C0645C
:10485000C0937C00DC2FD07C8091ED018D1721F07E
:104860000E948454D093ED0180917A0080648093FB
:104870007A0090917A00892F807496FDFACF40E0FB
:1048800050E09A01E091EB018E1700F1A091EE014A
:10489000B091EF01D03821F0A091F001B091F10179
:1048A0000E94F656672F782F892F90E0869577958E
:1048B00067958695779567952E2F30E040E050E01C
:1048C0000E94A856C901DF91CF91089590917A0076
:1048D000906490937A0090917A0096FDFCCF60915D
:1048E000780070917900260F371F411D511D8430CB
:1048F00059F4343048F4D03839F09091EC019130CB
:1049000019F4CF73C068A4CF8F5FBCCFA1E0B0E033
:10491000ECE8F4E20C94115789830E947B5489815E
:104920000E9423242196E2E00C942D57A1E0B0E0F0
:10493000ECE9F4E20C94115789830E94795489813F
:104940000E9423242196E2E00C942D57EF92FF92CF
:104950000F931F93CF93DF93062FC42F8093CB0128
:104960006093CC014093CD01E82EF12CC701875F05
:104970009F4F0E9494578093D10110E0C801875F38
:104980009F4F0E9494578093D201D0E0CE01875F61
:104990009F4F0E9494578093D301C7018A5F9F4F16
:1049A0000E9494578093D401C8018A5F9F4F0E9450
:1049B00094578093D501CE018A5F9F4F0E949457F0
:1049C0008093D601C7018D5F9F4F0E9494578093BB
:1049D000D701C8018D5F9F4F0E9494578093D801E3
:1049E000CE018D5F9F4F0E9494578093D901C701DC
:1049F000805090400E9494578093DA01C801805003
:104A000090400E9494578093DB01CE0180509040EB
:104A10000E9494578093DC01CDB7DEB7E6E00C949A
:104A2000295743E0461B481B0E94A6240895EBEC3F
:104A3000F1E04581648183810E94A62408958091DC
:104A4000CB018093CE018091CC018093CF018091E6
:104A5000CD018093D0010895CF93DF930E9411255B
:104A600011B88091D1018BB99091D201892B8AB96B
:104A70008091DA010E948624EC018091DB010E9482
:104A80002324AC012091F0013091F1013695279556
:104A9000C9014E978C179D0760F4225E3F4FC217E5
:104AA000D30738F48417950720F481E042175307A1
:104AB00008F080E01AB8DF91CF910895CF9361E0BC
:104AC00080E00E942C25C82F62E080E00E942C2507
:104AD000C80F62E081E00E942C258C0FCF910895D1
:104AE000A4E0B0E0E6E7F5E20C94115789836A830D
:104AF00011B812B81AB81BB86A8189810E941125B1
:104B00008091D70181B98091DB010E9423248B839E
:104B10009C838091D80181B98091DA010E9423247D
:104B20002B813C812817390720F469818A810E94F2
:104B300011258091D70181B98091D2018AB932E3E0
:104B400039838091DB010E9423249C01203981E07C
:104B5000380740F491B18091D801982B91B928324F
:104B6000310550F0898181508983811529F084E6CF
:104B700090E00E946E1FE5CF11B81AB82496E2E0CB
:104B80000C942D57A7E0B0E0E8ECF5E20C940A573E
:104B900011B812B81BB88CEF8AB982E00E942324A6
:104BA00089839A8381E00E9423248B839C8380E005
:104BB0000E9423248D839E83E12C32E0F32E08E2B1
:104BC00011E0F39423E0F21201C0F12CCF2CD12C90
:104BD0008E2D90E00F2C02C0959587950A94E2F7F0
:104BE00080FDEFCFC601805090400E9494578F8384
:104BF0000E942324F601EE0FFF1FAE014F5F5F4FAF
:104C0000E40FF51F2081318182179307D8F4808348
:104C10009183402F411B550B443151051CF40B3E31
:104C200008F40C5E11E083309105A8F080399140C2
:104C3000C8F4B1B0C6018D5F9F4F0E9494578B2975
:104C400081B910C01F5F8A30910580F7093208F4DE
:104C500000E5039770F781E00C2C01C0880F0A94DF
:104C6000EAF7E82A87E0E81649F1011768F581E0DC
:104C70008093C0018093C101F092C601C6018D5F8F
:104C80009F4F0E94945791B18095892381B9C601A5
:104C90008A5F9F4F0E949457182FC601875F9F4FCE
:104CA0000E9494579AB1812B809598239AB98F814D
:104CB0000E9423248093C7019093C8011AB811B8A9
:104CC0002796E9E00C942657A89582E390E00E948D
:104CD0006E1F111176CFF2CFCF93C82FC0959BB125
:104CE00060FF11C0982B9BB99AB1982B9AB963FFBA
:104CF0000CC00E947F548AB18C238AB98BB18C235B
:104D00008BB9CF9108959C23EECF0E947A54F3CFB4
:104D1000CF92DF92FF920F931F93CF93DF9300D038
:104D200000D0CDB7DEB76150633008F059C070E0F5
:104D30009B01220F331FF901EE5EFE4FA081B1816E
:104D4000FB01E15FFE4FF080CF2CD12C645F7E4FE2
:104D5000FB014081042F10E02A5F3E4FF9012081C2
:104D600031818A179B07C8F18A1B9B0BB6010E94F1
:104D70008056F81A0617110508F0462F8901040F0E
:104D8000111D040F111DC8010E949C5789839A832D
:104D9000C80102960E949C579C0189819A81821BBE
:104DA000930BF89EA001F99E500D1124C601969513
:104DB0008795840F951FB6010E948056C901860F02
:104DC000971F0F900F900F900F90DF91CF911F9131
:104DD0000F91FF90DF90CF90089580E090E0C6CFD4
:104DE00080E090E0EECFA8E0B0E0E9EFF6E20C94CE
:104DF00001576B017C0148872B830983283109F413
:104E000062C060F4263009F466C02C3009F466C034
:104E10001F828F812896E2E10C941D572B8120364A
:104E2000B9F709E210E051C0B601C7019401A5012C
:104E30000E94A85669017A0138853F5F388780EA69
:104E4000C81686E8D80681E0E806F10468F7A0E114
:104E5000CA16A7E2DA06E104F10408F442C0B6017A
:104E6000C7012B013C012AE030E040E050E00E9405
:104E7000A8564901B901CA01B885BA832B2F2F5F03
:104E8000288730E1431637E253066104710448F77E
:104E9000612C212C312C712C2101C8010E949C57BE
:104EA0001C018815990558F50E5F1F4F81E0870D8D
:104EB000672C9B81891321C02101712C98EE292E2A
:104EC00093E0392E1FC009EE10E02AE0822E912CCB
:104ED000A12CB12CB4CF01E311E0F7CF09E111E02F
:104EE000F4CFAAE0B0E09601A7010E94F6566B014C
:104EF0007C01988591509887AACF782ECDCFAB8131
:104F0000A715D9F29201A4E6B0E00E9447564B01E2
:104F10005C0199819B831C821D821E822981A22FA4
:104F20009401A5010E94F65628EE33E040E050E0DF
:104F30000E94A856820E931EA41EB51E8C149D04BA
:104F4000AE04BF0408F46AC021E0260D3981323373
:104F500008F462C0C2016AE070E00E9480562B0132
:104F60003A813E5FC20140924D0190934E011092F2
:104F70004F01109250013093510120933C0181E088
:104F80008F839101A4E6B0E00E9447564B015C017B
:104F90002B813C814D815E810E94565628EE33E084
:104FA00040E050E00E94A856821A930AA40AB50A6B
:104FB000C814D904EA04FB0408F42BCF21E0270D20
:104FC00098EE291693E0390631F4AA81AE5FA887DE
:104FD00084E6282E312CB981B23348F0C1016AE051
:104FE00070E00E9480561B0138853F5F3887C10101
:104FF0003F81311115C020924D0190934E011092C6
:105000004F011092500188858093510120933C01FB
:10501000AF81AF5FAF83FDCE3885A4CF1F82B1CF04
:105020002092520190935301109254011092550115
:1050300098859093560120933D01EACF0F931F93DB
:10504000CF93DF939091C001913009F4B0C0A8953F
:105050000E94A6241BB88091D2018AB98091D70101
:1050600081B982B960E18091D3010E946C26809160
:10507000DB010E948624EC018091D2019091D30142
:10508000892B8AB98091DB010E9486248C01809152
:10509000D2018AB90C171D0718F405301105A0F1CB
:1050A000C13D23E0D20700F161E18091D3010E946C
:1050B0006C268091DB010E948624EC018091D30153
:1050C0008BB99091D201892B8AB98091DB010E9422
:1050D00086248C011BB88091D2018AB90C171D0758
:1050E00018F40530110580F0C031D10560F08091D1
:1050F000C201811173C0CE010E94193CC13D83E001
:10510000D80708F059C08E018091C201811143C0B7
:105110008091D2018AB91BB88091D70181B982B937
:105120000E947B548091D2019091D301892B8AB93E
:105130008091DB010E9486248F359D4020F0B801CC
:1051400082E00E942E3A8091C201811124C0809198
:10515000D80181B912B88091D1019091D301892BE6
:105160008AB98BB98091DA010E94862480349640F6
:1051700060F40E94ED3D811108C08091C001813230
:1051800021F0B80181E00E942E3A8091C201811184
:1051900002C00E94F03E8091C001811511F08A305A
:1051A000A1F40E94D82E11B812B81AB81BB8DF911A
:1051B000CF911F910F9108958091C201811102C07A
:1051C0000E94963E0E947B37E6CF8F3161F7809137
:1051D000C10184FFE8CF0E949238E5CFC13D83E052
:1051E000D80708F490CFEECF8091C3018115E1F08C
:1051F0009091C20190FD18C091FD04C09091C00132
:105200009E3190F48093C0018091350180933C01E0
:105210008091360180933D018091370180933E015A
:105220008091CA018093C9010895CF936091F701DD
:105230008091F901861319C0C091F501C0FD0E944B
:105240009C1CC1FF0EC0C091F901C23028F462E07D
:1052500081E00E944D5107C08C2F0E947851C150AF
:10526000F4CF0E94D851CF9108956F5FF1CFCF93C3
:105270008091F701C091F901C8130DC00E949C1CD8
:105280008C2F0E9478516C2F81E00E944D5184EF49
:1052900091E00E946E1FCF910895CF93DF93EC01B0
:1052A000CE010E949457811103C0DF91CF910895E0
:1052B0000E94A6522196F4CFA3E0B0E0E2E6F9E224
:1052C0000C941057182F99838A839B838A819B8122
:1052D0000E949457811118C09091F8018A81811B16
:1052E0009817C0F0812F2A81821B890F86958F5FC6
:1052F0006091F7010E944D51812F99810E944D29A3
:105300002396E3E00C942C578A819B8101968A8333
:105310009B83DCCF81E0ECCFCF93DF93C091FB0187
:10532000D091FC01E82FF0E0EE0FFF1FE050FF4F9F
:10533000208131812093FB013093FC01885F0E9422
:10534000A652C093FB01D093FC01DF91CF91089549
:10535000CF93DF93C091FB01D091FC01E82FF0E0E7
:10536000EE0FFF1FE050FF4F208131812093FB01A2
:105370003093FC010E9488110E94A652C093FB0149
:10538000D093FC01DF91CF91089580E20E94A65254
:1053900008958DE20E94A65208958AE30E94A652C3
:1053A00008950E944D290E94C5290895A2E0B0E009
:1053B000ECEDF9E20C94115789839A830E94152928
:1053C00089819A810E944D292296E2E00C942D5702
:1053D000A2E0B0E0EEEEF9E20C94115789839A83D3
:1053E0000E94152989819A810E945C292296E2E017
:1053F0000C942D57A2E0B0E0E0E0FAE20C941157D3
:1054000089839A830E94152989819A810E944D2956
:105410000E94C5292296E2E00C942D5782E00E945A
:10542000785162E081E00E944D51089583E00E942E
:10543000785163E081E00E944D510895CF93DF934E
:10544000C091FB01D091FC016093FB017093FC01C2
:105450000E944D29C093FB01D093FC01DF91CF91B5
:1054600008950E941E2A0E94C52908958091FB017B
:105470009091FC018093FD019093FE018FEF97E0E6
:105480008093FB019093FC0108958091FD01909120
:10549000FE018093FB019093FC0108958091FB0134
:1054A0009091FC018093FD019093FE018FEF9FEF9F
:1054B0008093FB019093FC0108956091F901861798
:1054C00038F4681B66956F5F81E00E944D51089526
:1054D00061E0FACFCF93C0E38A3008F0C7E5C80F88
:1054E0000E944E2A8C2F0E94A6520E94452ACF91DC
:1054F0000895CF93C82F82958F700E946A2A8C2FAF
:105500008F700E946A2ACF910895A7E0B0E0EBE87F
:10551000FAE20C940F5769837A838B839C834E83C2
:105520002D830E944E2A2AE04DE052E069817A8163
:105530008B819C810E943857EDE0F2E001900020C1
:10554000E9F7EE50F2400E2F8E81811529F1E81710
:10555000C8F09E2F981B9F838E17B9F01E828DE096
:1055600092E089839A8310E0101319C00E94452AA3
:10557000FD81F11519F08F2F0E94A6522796E4E0C5
:105580000C942B578E818E1B8F8380E30E94A65232
:105590009F819E831F82E3CFE4E6EF83E0CF9F816C
:1055A000191306C08EE20E94A652FE81F11109C0B5
:1055B000E981FA818191E983FA830E94A6521F5FF3
:1055C000D3CF80E30E94A652EE81E150EE83EDCF6F
:1055D000A3E0B0E0EEEEFAE20C940B576B017C0115
:1055E0004A832983E0E1CE16E7E2DE06E104F10416
:1055F00008F05BC0FA81F13F0CF469C08F2F815F26
:1056000023E0622F0E947256192F911519F08F5FB7
:10561000291B122F883008F05BC090E0865F9D4FF9
:105620000E9494578B830E944E2A4AE06DE072E0FC
:10563000C6010E945A57EDE0F2E001900020E9F720
:10564000EE50F2400E2F8E2F811B8A83181664F0C5
:1056500080E30E94A6528EE20E94A652EA81E115E2
:1056600019F080E30E94A652111102C0FFEFFA83E5
:105670008A8181508A838DE0C82E82E0D82EE12C69
:10568000F12CE01638F10E94452AEB81E11519F062
:105690008E2F0E94A652F981F11519F08F2F0E94CA
:1056A000A6522396E8E00C942757B601C7016B5F1A
:1056B0007F4F8F4F9F4F2AE030E040E050E00E9444
:1056C000A85669017A018A818F5F8A838BCF10E0A7
:1056D0001B82A9CFF60181916F010E94A652FA8127
:1056E0000F2E001C0008FE150F0419F48EE20E9414
:1056F000A6528FEFE81AF80AC4CF20E040E00E94DB
:10570000E82A0895CF92DF92EF92FF92CF93DF9332
:1057100000D0CDB7DEB76B017C0149832A83F7FE49
:105720000EC00E944E2A0E94C9290E94452AF09468
:10573000E094D094C094C11CD11CE11CF11C2A81BE
:105740004981B601C7010E94E82A0F900F90DF91AE
:10575000CF91FF90EF90DF90CF900895FC01362F0E
:10576000242F8CE0860F63E00E947256913059F42A
:10577000E436F10540F48AE0AF01849FF001859F93
:10578000F00D11243150BF0180E090E0432F0E94C2
:10579000E82A0895CF93DF93D82FC62F8A3038F4A4
:1057A0000E944E2A80E30E94A6520E94452A6D2F35
:1057B00070E080E090E020E040E00E94852ACD3F4C
:1057C00094F0CD5F8C2F90E0845F9F4F0E949457A0
:1057D000C82F0E944E2A8C2F0E94A6520E94452A52
:1057E000DF91CF910895C0E0EDCFA3E0B0E0EBEF03
:1057F000FBE20C94115789838091C901E82FEE0FC9
:10580000E80FE60FFF27FF1FE059FF4FE491E11576
:1058100009F442C0209102028FEF820F60910302CF
:10582000E4FF04C0909101029695690FE1FF0AC060
:1058300090910002890FE5FF03C09695892F820F92
:10584000E3FD6150E2FF05C090910102690FE1FFA5
:1058500061500E944D5189810E948811883701F55D
:105860008091FB019091FC018A839B839981E92FB0
:10587000F0E0EE0FFF1FE050FF4F80819181809399
:10588000FB019093FC018BE00E94A6528A819B81D0
:105890008093FB019093FC012396E2E00C942D573A
:1058A00089810E948C29F8CF0F931F93CF93209169
:1058B00001023091F90193E0920F3917E8F19091CC
:1058C000F801903120F02F5F280F2317C8F1309393
:1058D000F7010E94152983E093E0909302028093E0
:1058E0000302C091F70160E080913C010E94F52B1A
:1058F00061E080913D010E94F52B62E080913E01C4
:105900000E94F52B0091FB011091FC0180EE9FEFAE
:105910008093FB019093FC0160910302809102024D
:105920000E944D518091C9010E9436530093FB01A2
:105930001093FC01C093F701CF911F910F9108952F
:105940009F5F20910002921BC8CFA3E0B0E0EBEA7A
:10595000FCE20C940F578A839091010281E0890F39
:105960002A81820F2091F901281780F08091F80197
:10597000803160F0009100028F5F801B89838A81F3
:10598000890F8B832B818A81281304C02396E4E03E
:105990000C942B576A8189810E944D51102F11114F
:1059A00004C09A819F5F9A83EDCF0E94C529115050
:1059B000F6CFFF920F931F93CF93DF930E94D8519E
:1059C0006FEF77E080E693E00E941E2A82E08093EA
:1059D000F5010091F9010150C0E0D1E00E941529C4
:1059E0008C2F0E94792A0E94C52918E01C0FF09084
:1059F000F6018C2F0E94A6528091F6018F1107C0EC
:105A00008F5F8093F6016091F7010E944D51CF5F47
:105A10001C13EDCF111539F00D1791F0DF5FD11583
:105A200051F0C12FDBCFD0E06AE180E090E00E942E
:105A30004E1B8330A1F7CDB7DEB7E5E00C942A57B3
:105A4000D1E0F2CFA0E0B0E0E8E2FDE20C9408572C
:105A50000E94D8516FEF77E088E593E00E941E2AFC
:105A600082E08093F5019090F8010091F901B090E7
:105A70000002A0900102D0E0EA2CF12C0E9415292E
:105A8000C091F701C7018C0F911D019708171906E6
:105A90000CF44DC08D2F0E94792A0E94C529C09018
:105AA000FB01D090FC0120EE3FEF2093FB013093EF
:105AB000FC011091F601212F2B0D3327331FC90153
:105AC00001979816190674F06C2F812F0E944D5182
:105AD0008D2F0E943653DF5F1B0DD23160F381E0C2
